{
  "_format": "hh-sol-artifact-1",
  "contractName": "LuckyLemurs",
  "sourceName": "contracts/LuckyLemurs.sol",
  "abi": [
    {
      "inputs": [],
      "stateMutability": "nonpayable",
      "type": "constructor"
    },
    {
      "anonymous": false,
      "inputs": [
        {
          "indexed": true,
          "internalType": "address",
          "name": "owner",
          "type": "address"
        },
        {
          "indexed": true,
          "internalType": "address",
          "name": "approved",
          "type": "address"
        },
        {
          "indexed": true,
          "internalType": "uint256",
          "name": "tokenId",
          "type": "uint256"
        }
      ],
      "name": "Approval",
      "type": "event"
    },
    {
      "anonymous": false,
      "inputs": [
        {
          "indexed": true,
          "internalType": "address",
          "name": "owner",
          "type": "address"
        },
        {
          "indexed": true,
          "internalType": "address",
          "name": "operator",
          "type": "address"
        },
        {
          "indexed": false,
          "internalType": "bool",
          "name": "approved",
          "type": "bool"
        }
      ],
      "name": "ApprovalForAll",
      "type": "event"
    },
    {
      "anonymous": false,
      "inputs": [
        {
          "indexed": true,
          "internalType": "address",
          "name": "previousOwner",
          "type": "address"
        },
        {
          "indexed": true,
          "internalType": "address",
          "name": "newOwner",
          "type": "address"
        }
      ],
      "name": "OwnershipTransferred",
      "type": "event"
    },
    {
      "anonymous": false,
      "inputs": [
        {
          "indexed": true,
          "internalType": "address",
          "name": "from",
          "type": "address"
        },
        {
          "indexed": true,
          "internalType": "address",
          "name": "to",
          "type": "address"
        },
        {
          "indexed": true,
          "internalType": "uint256",
          "name": "tokenId",
          "type": "uint256"
        }
      ],
      "name": "Transfer",
      "type": "event"
    },
    {
      "inputs": [],
      "name": "WOW_PROVENANCE",
      "outputs": [
        {
          "internalType": "string",
          "name": "",
          "type": "string"
        }
      ],
      "stateMutability": "view",
      "type": "function"
    },
    {
      "inputs": [
        {
          "internalType": "address",
          "name": "to",
          "type": "address"
        },
        {
          "internalType": "uint256",
          "name": "tokenId",
          "type": "uint256"
        }
      ],
      "name": "approve",
      "outputs": [],
      "stateMutability": "nonpayable",
      "type": "function"
    },
    {
      "inputs": [
        {
          "internalType": "address",
          "name": "owner",
          "type": "address"
        }
      ],
      "name": "balanceOf",
      "outputs": [
        {
          "internalType": "uint256",
          "name": "",
          "type": "uint256"
        }
      ],
      "stateMutability": "view",
      "type": "function"
    },
    {
      "inputs": [],
      "name": "baseURI",
      "outputs": [
        {
          "internalType": "string",
          "name": "",
          "type": "string"
        }
      ],
      "stateMutability": "view",
      "type": "function"
    },
    {
      "inputs": [
        {
          "internalType": "uint256",
          "name": "_number",
          "type": "uint256"
        },
        {
          "internalType": "address",
          "name": "_receiver",
          "type": "address"
        }
      ],
      "name": "claimReserved",
      "outputs": [],
      "stateMutability": "nonpayable",
      "type": "function"
    },
    {
      "inputs": [],
      "name": "flipSaleStarted",
      "outputs": [],
      "stateMutability": "nonpayable",
      "type": "function"
    },
    {
      "inputs": [
        {
          "internalType": "uint256",
          "name": "tokenId",
          "type": "uint256"
        }
      ],
      "name": "getApproved",
      "outputs": [
        {
          "internalType": "address",
          "name": "",
          "type": "address"
        }
      ],
      "stateMutability": "view",
      "type": "function"
    },
    {
      "inputs": [],
      "name": "getPrice",
      "outputs": [
        {
          "internalType": "uint256",
          "name": "",
          "type": "uint256"
        }
      ],
      "stateMutability": "view",
      "type": "function"
    },
    {
      "inputs": [],
      "name": "getReservedLeft",
      "outputs": [
        {
          "internalType": "uint256",
          "name": "",
          "type": "uint256"
        }
      ],
      "stateMutability": "view",
      "type": "function"
    },
    {
      "inputs": [
        {
          "internalType": "address",
          "name": "owner",
          "type": "address"
        },
        {
          "internalType": "address",
          "name": "operator",
          "type": "address"
        }
      ],
      "name": "isApprovedForAll",
      "outputs": [
        {
          "internalType": "bool",
          "name": "",
          "type": "bool"
        }
      ],
      "stateMutability": "view",
      "type": "function"
    },
    {
      "inputs": [],
      "name": "maxSupply",
      "outputs": [
        {
          "internalType": "uint256",
          "name": "",
          "type": "uint256"
        }
      ],
      "stateMutability": "view",
      "type": "function"
    },
    {
      "inputs": [
        {
          "internalType": "uint256",
          "name": "_nbTokens",
          "type": "uint256"
        }
      ],
      "name": "mint",
      "outputs": [],
      "stateMutability": "payable",
      "type": "function"
    },
    {
      "inputs": [],
      "name": "name",
      "outputs": [
        {
          "internalType": "string",
          "name": "",
          "type": "string"
        }
      ],
      "stateMutability": "view",
      "type": "function"
    },
    {
      "inputs": [],
      "name": "owner",
      "outputs": [
        {
          "internalType": "address",
          "name": "",
          "type": "address"
        }
      ],
      "stateMutability": "view",
      "type": "function"
    },
    {
      "inputs": [
        {
          "internalType": "uint256",
          "name": "tokenId",
          "type": "uint256"
        }
      ],
      "name": "ownerOf",
      "outputs": [
        {
          "internalType": "address",
          "name": "",
          "type": "address"
        }
      ],
      "stateMutability": "view",
      "type": "function"
    },
    {
      "inputs": [],
      "name": "renounceOwnership",
      "outputs": [],
      "stateMutability": "nonpayable",
      "type": "function"
    },
    {
      "inputs": [
        {
          "internalType": "address",
          "name": "from",
          "type": "address"
        },
        {
          "internalType": "address",
          "name": "to",
          "type": "address"
        },
        {
          "internalType": "uint256",
          "name": "tokenId",
          "type": "uint256"
        }
      ],
      "name": "safeTransferFrom",
      "outputs": [],
      "stateMutability": "nonpayable",
      "type": "function"
    },
    {
      "inputs": [
        {
          "internalType": "address",
          "name": "from",
          "type": "address"
        },
        {
          "internalType": "address",
          "name": "to",
          "type": "address"
        },
        {
          "internalType": "uint256",
          "name": "tokenId",
          "type": "uint256"
        },
        {
          "internalType": "bytes",
          "name": "_data",
          "type": "bytes"
        }
      ],
      "name": "safeTransferFrom",
      "outputs": [],
      "stateMutability": "nonpayable",
      "type": "function"
    },
    {
      "inputs": [],
      "name": "saleStarted",
      "outputs": [
        {
          "internalType": "bool",
          "name": "",
          "type": "bool"
        }
      ],
      "stateMutability": "view",
      "type": "function"
    },
    {
      "inputs": [
        {
          "internalType": "address",
          "name": "operator",
          "type": "address"
        },
        {
          "internalType": "bool",
          "name": "approved",
          "type": "bool"
        }
      ],
      "name": "setApprovalForAll",
      "outputs": [],
      "stateMutability": "nonpayable",
      "type": "function"
    },
    {
      "inputs": [
        {
          "internalType": "string",
          "name": "_URI",
          "type": "string"
        }
      ],
      "name": "setBaseURI",
      "outputs": [],
      "stateMutability": "nonpayable",
      "type": "function"
    },
    {
      "inputs": [
        {
          "internalType": "uint256",
          "name": "_newPrice",
          "type": "uint256"
        }
      ],
      "name": "setPrice",
      "outputs": [],
      "stateMutability": "nonpayable",
      "type": "function"
    },
    {
      "inputs": [
        {
          "internalType": "string",
          "name": "provenanceHash",
          "type": "string"
        }
      ],
      "name": "setProvenanceHash",
      "outputs": [],
      "stateMutability": "nonpayable",
      "type": "function"
    },
    {
      "inputs": [],
      "name": "setStartingIndex",
      "outputs": [],
      "stateMutability": "nonpayable",
      "type": "function"
    },
    {
      "inputs": [],
      "name": "startingIndex",
      "outputs": [
        {
          "internalType": "uint256",
          "name": "",
          "type": "uint256"
        }
      ],
      "stateMutability": "view",
      "type": "function"
    },
    {
      "inputs": [
        {
          "internalType": "bytes4",
          "name": "interfaceId",
          "type": "bytes4"
        }
      ],
      "name": "supportsInterface",
      "outputs": [
        {
          "internalType": "bool",
          "name": "",
          "type": "bool"
        }
      ],
      "stateMutability": "view",
      "type": "function"
    },
    {
      "inputs": [],
      "name": "symbol",
      "outputs": [
        {
          "internalType": "string",
          "name": "",
          "type": "string"
        }
      ],
      "stateMutability": "view",
      "type": "function"
    },
    {
      "inputs": [
        {
          "internalType": "uint256",
          "name": "index",
          "type": "uint256"
        }
      ],
      "name": "tokenByIndex",
      "outputs": [
        {
          "internalType": "uint256",
          "name": "",
          "type": "uint256"
        }
      ],
      "stateMutability": "view",
      "type": "function"
    },
    {
      "inputs": [
        {
          "internalType": "address",
          "name": "owner",
          "type": "address"
        },
        {
          "internalType": "uint256",
          "name": "index",
          "type": "uint256"
        }
      ],
      "name": "tokenOfOwnerByIndex",
      "outputs": [
        {
          "internalType": "uint256",
          "name": "",
          "type": "uint256"
        }
      ],
      "stateMutability": "view",
      "type": "function"
    },
    {
      "inputs": [
        {
          "internalType": "uint256",
          "name": "tokenId",
          "type": "uint256"
        }
      ],
      "name": "tokenURI",
      "outputs": [
        {
          "internalType": "string",
          "name": "",
          "type": "string"
        }
      ],
      "stateMutability": "view",
      "type": "function"
    },
    {
      "inputs": [],
      "name": "totalSupply",
      "outputs": [
        {
          "internalType": "uint256",
          "name": "",
          "type": "uint256"
        }
      ],
      "stateMutability": "view",
      "type": "function"
    },
    {
      "inputs": [
        {
          "internalType": "address",
          "name": "from",
          "type": "address"
        },
        {
          "internalType": "address",
          "name": "to",
          "type": "address"
        },
        {
          "internalType": "uint256",
          "name": "tokenId",
          "type": "uint256"
        }
      ],
      "name": "transferFrom",
      "outputs": [],
      "stateMutability": "nonpayable",
      "type": "function"
    },
    {
      "inputs": [
        {
          "internalType": "address",
          "name": "newOwner",
          "type": "address"
        }
      ],
      "name": "transferOwnership",
      "outputs": [],
      "stateMutability": "nonpayable",
      "type": "function"
    },
    {
      "inputs": [
        {
          "internalType": "address",
          "name": "_owner",
          "type": "address"
        }
      ],
      "name": "walletOfOwner",
      "outputs": [
        {
          "internalType": "uint256[]",
          "name": "",
          "type": "uint256[]"
        }
      ],
      "stateMutability": "view",
      "type": "function"
    },
    {
      "inputs": [],
      "name": "withdraw",
      "outputs": [],
      "stateMutability": "nonpayable",
      "type": "function"
    }
  ],
  "bytecode": "0x67011c37937e080000600b5560c8600c5560a06040819052600060808190526200002c91600d916200016b565b50601180546001600160a01b031990811673c9b6321dc216d91e626e9baa61b06b0e4d55bdb1179091556012805490911673f39fd6e51aad88f6f4ce6ab8827279cfffb922661790553480156200008257600080fd5b50604080518082018252600c81526b4c75636b79204c656d75727360a01b60208083019182528351808501909452600384526213131560ea1b908401528151919291620000d2916000916200016b565b508051620000e89060019060208401906200016b565b50505062000105620000ff6200011560201b60201c565b62000119565b600f805460ff191690556200024e565b3390565b600a80546001600160a01b038381166001600160a01b0319831681179093556040519116919082907f8be0079c531659141344cd1fd0a4f28419497f9722a3daafe3b4186f6b6457e090600090a35050565b828054620001799062000211565b90600052602060002090601f0160209004810192826200019d5760008555620001e8565b82601f10620001b857805160ff1916838001178555620001e8565b82800160010185558215620001e8579182015b82811115620001e8578251825591602001919060010190620001cb565b50620001f6929150620001fa565b5090565b5b80821115620001f65760008155600101620001fb565b600181811c908216806200022657607f821691505b602082108114156200024857634e487b7160e01b600052602260045260246000fd5b50919050565b61251b806200025e6000396000f3fe6080604052600436106102045760003560e01c8063715018a611610118578063b88d4fde116100a0578063daa023aa1161006f578063daa023aa14610599578063debad018146105ae578063e985e9c5146105c3578063e98665501461060c578063f2fde38b1461062157600080fd5b8063b88d4fde1461052d578063c87b56dd1461054d578063cb774d471461056d578063d5abeb011461058357600080fd5b806395d89b41116100e757806395d89b41146104b057806398d5fdca146104c5578063a0712d68146104da578063a22cb465146104ed578063b0e1d7f31461050d57600080fd5b8063715018a614610448578063899d7b381461045d5780638da5cb5b1461047257806391b7f5ed1461049057600080fd5b80633ccfd60b1161019b57806355f804b31161016a57806355f804b3146103bb5780635c474f9e146103db5780636352211e146103f35780636c0360eb1461041357806370a082311461042857600080fd5b80633ccfd60b1461033957806342842e0e1461034e578063438b63001461036e5780634f6ccce71461039b57600080fd5b806310969523116101d757806310969523146102ba57806318160ddd146102da57806323b872dd146102f95780632f745c591461031957600080fd5b806301ffc9a71461020957806306fdde031461023e578063081812fc14610260578063095ea7b314610298575b600080fd5b34801561021557600080fd5b50610229610224366004612116565b610641565b60405190151581526020015b60405180910390f35b34801561024a57600080fd5b50610253610652565b60405161023591906122aa565b34801561026c57600080fd5b5061028061027b366004612194565b6106e4565b6040516001600160a01b039091168152602001610235565b3480156102a457600080fd5b506102b86102b33660046120ed565b61077e565b005b3480156102c657600080fd5b506102b86102d536600461214e565b610894565b3480156102e657600080fd5b506008545b604051908152602001610235565b34801561030557600080fd5b506102b8610314366004611fff565b6108d5565b34801561032557600080fd5b506102eb6103343660046120ed565b610906565b34801561034557600080fd5b506102b861099c565b34801561035a57600080fd5b506102b8610369366004611fff565b610a4b565b34801561037a57600080fd5b5061038e610389366004611fb3565b610a66565b6040516102359190612266565b3480156103a757600080fd5b506102eb6103b6366004612194565b610b24565b3480156103c757600080fd5b506102b86103d636600461214e565b610bc5565b3480156103e757600080fd5b50600f5460ff16610229565b3480156103ff57600080fd5b5061028061040e366004612194565b610c02565b34801561041f57600080fd5b50610253610c79565b34801561043457600080fd5b506102eb610443366004611fb3565b610d07565b34801561045457600080fd5b506102b8610d8e565b34801561046957600080fd5b506102b8610dc4565b34801561047e57600080fd5b50600a546001600160a01b0316610280565b34801561049c57600080fd5b506102b86104ab366004612194565b610e1d565b3480156104bc57600080fd5b50610253610e4c565b3480156104d157600080fd5b50600b546102eb565b6102b86104e8366004612194565b610e5b565b3480156104f957600080fd5b506102b86105083660046120b3565b610fd0565b34801561051957600080fd5b506102b86105283660046121ac565b611095565b34801561053957600080fd5b506102b861054836600461203a565b61116c565b34801561055957600080fd5b50610253610568366004612194565b6111a4565b34801561057957600080fd5b506102eb600e5481565b34801561058f57600080fd5b506102eb61270f81565b3480156105a557600080fd5b50600c546102eb565b3480156105ba57600080fd5b5061025361127f565b3480156105cf57600080fd5b506102296105de366004611fcd565b6001600160a01b03918216600090815260056020908152604080832093909416825291909152205460ff1690565b34801561061857600080fd5b506102b861128c565b34801561062d57600080fd5b506102b861063c366004611fb3565b611371565b600061064c8261140c565b92915050565b60606000805461066190612423565b80601f016020809104026020016040519081016040528092919081815260200182805461068d90612423565b80156106da5780601f106106af576101008083540402835291602001916106da565b820191906000526020600020905b8154815290600101906020018083116106bd57829003601f168201915b5050505050905090565b6000818152600260205260408120546001600160a01b03166107625760405162461bcd60e51b815260206004820152602c60248201527f4552433732313a20617070726f76656420717565727920666f72206e6f6e657860448201526b34b9ba32b73a103a37b5b2b760a11b60648201526084015b60405180910390fd5b506000908152600460205260409020546001600160a01b031690565b600061078982610c02565b9050806001600160a01b0316836001600160a01b031614156107f75760405162461bcd60e51b815260206004820152602160248201527f4552433732313a20617070726f76616c20746f2063757272656e74206f776e656044820152603960f91b6064820152608401610759565b336001600160a01b0382161480610813575061081381336105de565b6108855760405162461bcd60e51b815260206004820152603860248201527f4552433732313a20617070726f76652063616c6c6572206973206e6f74206f7760448201527f6e6572206e6f7220617070726f76656420666f7220616c6c00000000000000006064820152608401610759565b61088f8383611431565b505050565b600a546001600160a01b031633146108be5760405162461bcd60e51b81526004016107599061230f565b80516108d190600d906020840190611e88565b5050565b6108df338261149f565b6108fb5760405162461bcd60e51b815260040161075990612344565b61088f838383611596565b600061091183610d07565b82106109735760405162461bcd60e51b815260206004820152602b60248201527f455243373231456e756d657261626c653a206f776e657220696e646578206f7560448201526a74206f6620626f756e647360a81b6064820152608401610759565b506001600160a01b03919091166000908152600660209081526040808320938352929052205490565b600a546001600160a01b031633146109c65760405162461bcd60e51b81526004016107599061230f565b4760006109df60646109d984603e611741565b9061174d565b6011546040519192506001600160a01b03169082156108fc029083906000818181858888f19350505050610a1257600080fd5b6012546001600160a01b03166108fc610a2b8484611759565b6040518115909202916000818181858888f193505050506108d157600080fd5b61088f8383836040518060200160405280600081525061116c565b60606000610a7383610d07565b905060008167ffffffffffffffff811115610a9e57634e487b7160e01b600052604160045260246000fd5b604051908082528060200260200182016040528015610ac7578160200160208202803683370190505b50905060005b82811015610b1c57610adf8582610906565b828281518110610aff57634e487b7160e01b600052603260045260246000fd5b602090810291909101015280610b148161245e565b915050610acd565b509392505050565b6000610b2f60085490565b8210610b925760405162461bcd60e51b815260206004820152602c60248201527f455243373231456e756d657261626c653a20676c6f62616c20696e646578206f60448201526b7574206f6620626f756e647360a01b6064820152608401610759565b60088281548110610bb357634e487b7160e01b600052603260045260246000fd5b90600052602060002001549050919050565b600a546001600160a01b03163314610bef5760405162461bcd60e51b81526004016107599061230f565b80516108d1906010906020840190611e88565b6000818152600260205260408120546001600160a01b03168061064c5760405162461bcd60e51b815260206004820152602960248201527f4552433732313a206f776e657220717565727920666f72206e6f6e657869737460448201526832b73a103a37b5b2b760b91b6064820152608401610759565b60108054610c8690612423565b80601f0160208091040260200160405190810160405280929190818152602001828054610cb290612423565b8015610cff5780601f10610cd457610100808354040283529160200191610cff565b820191906000526020600020905b815481529060010190602001808311610ce257829003601f168201915b505050505081565b60006001600160a01b038216610d725760405162461bcd60e51b815260206004820152602a60248201527f4552433732313a2062616c616e636520717565727920666f7220746865207a65604482015269726f206164647265737360b01b6064820152608401610759565b506001600160a01b031660009081526003602052604090205490565b600a546001600160a01b03163314610db85760405162461bcd60e51b81526004016107599061230f565b610dc26000611765565b565b600a546001600160a01b03163314610dee5760405162461bcd60e51b81526004016107599061230f565b600f805460ff19811660ff91821615908117909255168015610e105750600e54155b15610dc257610dc261128c565b600a546001600160a01b03163314610e475760405162461bcd60e51b81526004016107599061230f565b600b55565b60606001805461066190612423565b600f5460ff16610e6a57600080fd5b6000610e7560085490565b9050601f8210610edc5760405162461bcd60e51b815260206004820152602c60248201527f596f752063616e6e6f74206d696e74206d6f7265207468616e20333020546f6b60448201526b656e73206174206f6e63652160a01b6064820152608401610759565b600c54610eeb9061270f6123e0565b610ef58383612395565b1115610f435760405162461bcd60e51b815260206004820152601760248201527f4e6f7420656e6f75676820546f6b656e73206c6566742e0000000000000000006044820152606401610759565b34600b5483610f5291906123c1565b1115610fa05760405162461bcd60e51b815260206004820152601960248201527f496e636f6e73697374656e7420616d6f756e742073656e7421000000000000006044820152606401610759565b60005b8281101561088f57610fbe33610fb98385612395565b6117b7565b80610fc88161245e565b915050610fa3565b6001600160a01b0382163314156110295760405162461bcd60e51b815260206004820152601960248201527f4552433732313a20617070726f766520746f2063616c6c6572000000000000006044820152606401610759565b3360008181526005602090815260408083206001600160a01b03871680855290835292819020805460ff191686151590811790915590519081529192917f17307eab39ab6107e8899845ad3d59bd9653f200f220920489ca2b5937696c31910160405180910390a35050565b600a546001600160a01b031633146110bf5760405162461bcd60e51b81526004016107599061230f565b600c5482111561111d5760405162461bcd60e51b815260206004820152602360248201527f5468617420776f756c642065786365656420746865206d61782072657365727660448201526232b21760e91b6064820152608401610759565b600061112860085490565b905060005b838110156111555761114383610fb98385612395565b8061114d8161245e565b91505061112d565b5082600c5461116491906123e0565b600c55505050565b611176338361149f565b6111925760405162461bcd60e51b815260040161075990612344565b61119e848484846117d1565b50505050565b6000818152600260205260409020546060906001600160a01b03166112235760405162461bcd60e51b815260206004820152602f60248201527f4552433732314d657461646174613a2055524920717565727920666f72206e6f60448201526e3732bc34b9ba32b73a103a37b5b2b760891b6064820152608401610759565b600061122d611804565b9050600081511161124d5760405180602001604052806000815250611278565b8061125784611813565b6040516020016112689291906121fa565b6040516020818303038152906040525b9392505050565b600d8054610c8690612423565b600e54156112dc5760405162461bcd60e51b815260206004820152601d60248201527f5374617274696e6720696e64657820697320616c7265616479207365740000006044820152606401610759565b600044426040516020016112fa929190918252602082015260400190565b60408051601f198184030181529190528051602090910120905061131f60ff82612479565b61132a906001612395565b905080431015611338575060015b600061134482436123e0565b905061135361270f8240612479565b600e8190556108d157600e5461136a906001612395565b600e555050565b600a546001600160a01b0316331461139b5760405162461bcd60e51b81526004016107599061230f565b6001600160a01b0381166114005760405162461bcd60e51b815260206004820152602660248201527f4f776e61626c653a206e6577206f776e657220697320746865207a65726f206160448201526564647265737360d01b6064820152608401610759565b61140981611765565b50565b60006001600160e01b0319821663780e9d6360e01b148061064c575061064c8261192d565b600081815260046020526040902080546001600160a01b0319166001600160a01b038416908117909155819061146682610c02565b6001600160a01b03167f8c5be1e5ebec7d5bd14f71427d1e84f3dd0314c0f7b2291e5b200ac8c7c3b92560405160405180910390a45050565b6000818152600260205260408120546001600160a01b03166115185760405162461bcd60e51b815260206004820152602c60248201527f4552433732313a206f70657261746f7220717565727920666f72206e6f6e657860448201526b34b9ba32b73a103a37b5b2b760a11b6064820152608401610759565b600061152383610c02565b9050806001600160a01b0316846001600160a01b0316148061155e5750836001600160a01b0316611553846106e4565b6001600160a01b0316145b8061158e57506001600160a01b0380821660009081526005602090815260408083209388168352929052205460ff165b949350505050565b826001600160a01b03166115a982610c02565b6001600160a01b0316146116115760405162461bcd60e51b815260206004820152602960248201527f4552433732313a207472616e73666572206f6620746f6b656e2074686174206960448201526839903737ba1037bbb760b91b6064820152608401610759565b6001600160a01b0382166116735760405162461bcd60e51b8152602060048201526024808201527f4552433732313a207472616e7366657220746f20746865207a65726f206164646044820152637265737360e01b6064820152608401610759565b61167e83838361197d565b611689600082611431565b6001600160a01b03831660009081526003602052604081208054600192906116b29084906123e0565b90915550506001600160a01b03821660009081526003602052604081208054600192906116e0908490612395565b909155505060008181526002602052604080822080546001600160a01b0319166001600160a01b0386811691821790925591518493918716917fddf252ad1be2c89b69c2b068fc378daa952ba7f163c4a11628f55a4df523b3ef91a4505050565b600061127882846123c1565b600061127882846123ad565b600061127882846123e0565b600a80546001600160a01b038381166001600160a01b0319831681179093556040519116919082907f8be0079c531659141344cd1fd0a4f28419497f9722a3daafe3b4186f6b6457e090600090a35050565b6108d1828260405180602001604052806000815250611988565b6117dc848484611596565b6117e8848484846119bb565b61119e5760405162461bcd60e51b8152600401610759906122bd565b60606010805461066190612423565b6060816118375750506040805180820190915260018152600360fc1b602082015290565b8160005b8115611861578061184b8161245e565b915061185a9050600a836123ad565b915061183b565b60008167ffffffffffffffff81111561188a57634e487b7160e01b600052604160045260246000fd5b6040519080825280601f01601f1916602001820160405280156118b4576020820181803683370190505b5090505b841561158e576118c96001836123e0565b91506118d6600a86612479565b6118e1906030612395565b60f81b81838151811061190457634e487b7160e01b600052603260045260246000fd5b60200101906001600160f81b031916908160001a905350611926600a866123ad565b94506118b8565b60006001600160e01b031982166380ac58cd60e01b148061195e57506001600160e01b03198216635b5e139f60e01b145b8061064c57506301ffc9a760e01b6001600160e01b031983161461064c565b61088f838383611ac8565b6119928383611b80565b61199f60008484846119bb565b61088f5760405162461bcd60e51b8152600401610759906122bd565b60006001600160a01b0384163b15611abd57604051630a85bd0160e11b81526001600160a01b0385169063150b7a02906119ff903390899088908890600401612229565b602060405180830381600087803b158015611a1957600080fd5b505af1925050508015611a49575060408051601f3d908101601f19168201909252611a4691810190612132565b60015b611aa3573d808015611a77576040519150601f19603f3d011682016040523d82523d6000602084013e611a7c565b606091505b508051611a9b5760405162461bcd60e51b8152600401610759906122bd565b805181602001fd5b6001600160e01b031916630a85bd0160e11b14905061158e565b506001949350505050565b6001600160a01b038316611b2357611b1e81600880546000838152600960205260408120829055600182018355919091527ff3f7a9fe364faab93b216da50a3214154f22a0a2b415b23a84c8169e8b636ee30155565b611b46565b816001600160a01b0316836001600160a01b031614611b4657611b468382611cce565b6001600160a01b038216611b5d5761088f81611d6b565b826001600160a01b0316826001600160a01b03161461088f5761088f8282611e44565b6001600160a01b038216611bd65760405162461bcd60e51b815260206004820181905260248201527f4552433732313a206d696e7420746f20746865207a65726f20616464726573736044820152606401610759565b6000818152600260205260409020546001600160a01b031615611c3b5760405162461bcd60e51b815260206004820152601c60248201527f4552433732313a20746f6b656e20616c7265616479206d696e746564000000006044820152606401610759565b611c476000838361197d565b6001600160a01b0382166000908152600360205260408120805460019290611c70908490612395565b909155505060008181526002602052604080822080546001600160a01b0319166001600160a01b03861690811790915590518392907fddf252ad1be2c89b69c2b068fc378daa952ba7f163c4a11628f55a4df523b3ef908290a45050565b60006001611cdb84610d07565b611ce591906123e0565b600083815260076020526040902054909150808214611d38576001600160a01b03841660009081526006602090815260408083208584528252808320548484528184208190558352600790915290208190555b5060009182526007602090815260408084208490556001600160a01b039094168352600681528383209183525290812055565b600854600090611d7d906001906123e0565b60008381526009602052604081205460088054939450909284908110611db357634e487b7160e01b600052603260045260246000fd5b906000526020600020015490508060088381548110611de257634e487b7160e01b600052603260045260246000fd5b6000918252602080832090910192909255828152600990915260408082208490558582528120556008805480611e2857634e487b7160e01b600052603160045260246000fd5b6001900381819060005260206000200160009055905550505050565b6000611e4f83610d07565b6001600160a01b039093166000908152600660209081526040808320868452825280832085905593825260079052919091209190915550565b828054611e9490612423565b90600052602060002090601f016020900481019282611eb65760008555611efc565b82601f10611ecf57805160ff1916838001178555611efc565b82800160010185558215611efc579182015b82811115611efc578251825591602001919060010190611ee1565b50611f08929150611f0c565b5090565b5b80821115611f085760008155600101611f0d565b600067ffffffffffffffff80841115611f3c57611f3c6124b9565b604051601f8501601f19908116603f01168101908282118183101715611f6457611f646124b9565b81604052809350858152868686011115611f7d57600080fd5b858560208301376000602087830101525050509392505050565b80356001600160a01b0381168114611fae57600080fd5b919050565b600060208284031215611fc4578081fd5b61127882611f97565b60008060408385031215611fdf578081fd5b611fe883611f97565b9150611ff660208401611f97565b90509250929050565b600080600060608486031215612013578081fd5b61201c84611f97565b925061202a60208501611f97565b9150604084013590509250925092565b6000806000806080858703121561204f578081fd5b61205885611f97565b935061206660208601611f97565b925060408501359150606085013567ffffffffffffffff811115612088578182fd5b8501601f81018713612098578182fd5b6120a787823560208401611f21565b91505092959194509250565b600080604083850312156120c5578182fd5b6120ce83611f97565b9150602083013580151581146120e2578182fd5b809150509250929050565b600080604083850312156120ff578182fd5b61210883611f97565b946020939093013593505050565b600060208284031215612127578081fd5b8135611278816124cf565b600060208284031215612143578081fd5b8151611278816124cf565b60006020828403121561215f578081fd5b813567ffffffffffffffff811115612175578182fd5b8201601f81018413612185578182fd5b61158e84823560208401611f21565b6000602082840312156121a5578081fd5b5035919050565b600080604083850312156121be578182fd5b82359150611ff660208401611f97565b600081518084526121e68160208601602086016123f7565b601f01601f19169290920160200192915050565b6000835161220c8184602088016123f7565b8351908301906122208183602088016123f7565b01949350505050565b6001600160a01b038581168252841660208201526040810183905260806060820181905260009061225c908301846121ce565b9695505050505050565b6020808252825182820181905260009190848201906040850190845b8181101561229e57835183529284019291840191600101612282565b50909695505050505050565b60208152600061127860208301846121ce565b60208082526032908201527f4552433732313a207472616e7366657220746f206e6f6e20455243373231526560408201527131b2b4bb32b91034b6b83632b6b2b73a32b960711b606082015260800190565b6020808252818101527f4f776e61626c653a2063616c6c6572206973206e6f7420746865206f776e6572604082015260600190565b60208082526031908201527f4552433732313a207472616e736665722063616c6c6572206973206e6f74206f6040820152701ddb995c881b9bdc88185c1c1c9bdd9959607a1b606082015260800190565b600082198211156123a8576123a861248d565b500190565b6000826123bc576123bc6124a3565b500490565b60008160001904831182151516156123db576123db61248d565b500290565b6000828210156123f2576123f261248d565b500390565b60005b838110156124125781810151838201526020016123fa565b8381111561119e5750506000910152565b600181811c9082168061243757607f821691505b6020821081141561245857634e487b7160e01b600052602260045260246000fd5b50919050565b60006000198214156124725761247261248d565b5060010190565b600082612488576124886124a3565b500690565b634e487b7160e01b600052601160045260246000fd5b634e487b7160e01b600052601260045260246000fd5b634e487b7160e01b600052604160045260246000fd5b6001600160e01b03198116811461140957600080fdfea26469706673582212202cd82a913277e3938e41e184eccb72f756bb7906f6aeb06c83ce884d1c2c720d64736f6c63430008040033",
  "linkReferences": {},
  "deployedLinkReferences": {}
}